{
    "_format": "hh-sol-artifact-1",
    "contractName": "ShadowGroup",
    "sourceName": "contracts/ShadowGroup.sol",
    "abi": [
        {
            "inputs": [
                {
                    "internalType": "address",
                    "name": "_semaphoreAddress",
                    "type": "address"
                },
                {
                    "internalType": "uint256",
                    "name": "_groupID",
                    "type": "uint256"
                },
                {
                    "internalType": "uint256[]",
                    "name": "_ownersIdentityCommitments",
                    "type": "uint256[]"
                },
                {
                    "internalType": "uint256",
                    "name": "_quorum",
                    "type": "uint256"
                }
            ],
            "stateMutability": "nonpayable",
            "type": "constructor"
        },
        {
            "inputs": [],
            "name": "InvalidInitialOwners",
            "type": "error"
        },
        {
            "inputs": [],
            "name": "InvalidQuorum",
            "type": "error"
        },
        {
            "inputs": [],
            "name": "QuorumNotReached",
            "type": "error"
        },
        {
            "inputs": [],
            "name": "TxAlreadyExecuted",
            "type": "error"
        },
        {
            "inputs": [],
            "name": "TxDoesNotExist",
            "type": "error"
        },
        {
            "inputs": [],
            "name": "TxExecutionFailed",
            "type": "error"
        },
        {
            "inputs": [],
            "name": "TxRevoked",
            "type": "error"
        },
        {
            "stateMutability": "payable",
            "type": "fallback"
        },
        {
            "inputs": [
                {
                    "internalType": "uint256",
                    "name": "_txIndex",
                    "type": "uint256"
                },
                {
                    "internalType": "uint256",
                    "name": "_merkleTreeRoot",
                    "type": "uint256"
                },
                {
                    "internalType": "uint256",
                    "name": "_nullifierHash",
                    "type": "uint256"
                },
                {
                    "internalType": "uint256[8]",
                    "name": "_proof",
                    "type": "uint256[8]"
                }
            ],
            "name": "confirmTransaction",
            "outputs": [],
            "stateMutability": "nonpayable",
            "type": "function"
        },
        {
            "inputs": [
                {
                    "internalType": "uint256",
                    "name": "_txIndex",
                    "type": "uint256"
                }
            ],
            "name": "executeTransaction",
            "outputs": [],
            "stateMutability": "nonpayable",
            "type": "function"
        },
        {
            "inputs": [],
            "name": "getTransactions",
            "outputs": [
                {
                    "components": [
                        {
                            "internalType": "address",
                            "name": "to",
                            "type": "address"
                        },
                        {
                            "internalType": "uint256",
                            "name": "value",
                            "type": "uint256"
                        },
                        {
                            "internalType": "bytes",
                            "name": "data",
                            "type": "bytes"
                        },
                        {
                            "internalType": "bool",
                            "name": "executed",
                            "type": "bool"
                        },
                        {
                            "internalType": "uint32",
                            "name": "numConfirmations",
                            "type": "uint32"
                        },
                        {
                            "internalType": "uint32",
                            "name": "numRevocations",
                            "type": "uint32"
                        }
                    ],
                    "internalType": "struct ShadowGroup.Transaction[]",
                    "name": "",
                    "type": "tuple[]"
                }
            ],
            "stateMutability": "view",
            "type": "function"
        },
        {
            "inputs": [],
            "name": "groupID",
            "outputs": [
                {
                    "internalType": "uint256",
                    "name": "",
                    "type": "uint256"
                }
            ],
            "stateMutability": "view",
            "type": "function"
        },
        {
            "inputs": [],
            "name": "quorum",
            "outputs": [
                {
                    "internalType": "uint256",
                    "name": "",
                    "type": "uint256"
                }
            ],
            "stateMutability": "view",
            "type": "function"
        },
        {
            "inputs": [
                {
                    "internalType": "uint256",
                    "name": "_txIndex",
                    "type": "uint256"
                },
                {
                    "internalType": "uint256",
                    "name": "_merkleTreeRoot",
                    "type": "uint256"
                },
                {
                    "internalType": "uint256",
                    "name": "_nullifierHash",
                    "type": "uint256"
                },
                {
                    "internalType": "uint256[8]",
                    "name": "_proof",
                    "type": "uint256[8]"
                }
            ],
            "name": "revokeTransaction",
            "outputs": [],
            "stateMutability": "nonpayable",
            "type": "function"
        },
        {
            "inputs": [],
            "name": "semaphore",
            "outputs": [
                {
                    "internalType": "contract ISemaphore",
                    "name": "",
                    "type": "address"
                }
            ],
            "stateMutability": "view",
            "type": "function"
        },
        {
            "inputs": [
                {
                    "internalType": "address",
                    "name": "_to",
                    "type": "address"
                },
                {
                    "internalType": "uint256",
                    "name": "_value",
                    "type": "uint256"
                },
                {
                    "internalType": "bytes",
                    "name": "_data",
                    "type": "bytes"
                },
                {
                    "internalType": "uint256",
                    "name": "_merkleTreeRoot",
                    "type": "uint256"
                },
                {
                    "internalType": "uint256",
                    "name": "_nullifierHash",
                    "type": "uint256"
                },
                {
                    "internalType": "uint256[8]",
                    "name": "_proof",
                    "type": "uint256[8]"
                }
            ],
            "name": "submitTransaction",
            "outputs": [],
            "stateMutability": "nonpayable",
            "type": "function"
        },
        {
            "inputs": [
                {
                    "internalType": "uint256",
                    "name": "",
                    "type": "uint256"
                }
            ],
            "name": "transactions",
            "outputs": [
                {
                    "internalType": "address",
                    "name": "to",
                    "type": "address"
                },
                {
                    "internalType": "uint256",
                    "name": "value",
                    "type": "uint256"
                },
                {
                    "internalType": "bytes",
                    "name": "data",
                    "type": "bytes"
                },
                {
                    "internalType": "bool",
                    "name": "executed",
                    "type": "bool"
                },
                {
                    "internalType": "uint32",
                    "name": "numConfirmations",
                    "type": "uint32"
                },
                {
                    "internalType": "uint32",
                    "name": "numRevocations",
                    "type": "uint32"
                }
            ],
            "stateMutability": "view",
            "type": "function"
        }
    ],
    "bytecode": "0x60806040523480156200001157600080fd5b50604051620020a6380380620020a6833981810160405281019062000037919062000372565b60008251141562000074576040517f03206adc00000000000000000000000000000000000000000000000000000000815260040160405180910390fd5b6000811480620000845750815181115b15620000bc576040517fd173577900000000000000000000000000000000000000000000000000000000815260040160405180910390fd5b836000806101000a81548173ffffffffffffffffffffffffffffffffffffffff021916908373ffffffffffffffffffffffffffffffffffffffff1602179055508260018190555060008054906101000a900473ffffffffffffffffffffffffffffffffffffffff1673ffffffffffffffffffffffffffffffffffffffff16639c1121416001546014306040518463ffffffff1660e01b815260040162000165939291906200042a565b600060405180830381600087803b1580156200018057600080fd5b505af115801562000195573d6000803e3d6000fd5b5050505060005b8251811015620002905760008054906101000a900473ffffffffffffffffffffffffffffffffffffffff1673ffffffffffffffffffffffffffffffffffffffff16631783efc36001548584815181106200021f577f4e487b7100000000000000000000000000000000000000000000000000000000600052603260045260246000fd5b60200260200101516040518363ffffffff1660e01b81526004016200024692919062000467565b600060405180830381600087803b1580156200026157600080fd5b505af115801562000276573d6000803e3d6000fd5b505050508080620002879062000574565b9150506200019c565b50806002819055505050505062000665565b6000620002b9620002b384620004bd565b62000494565b90508083825260208201905082856020860282011115620002d957600080fd5b60005b858110156200030d5781620002f288826200035b565b845260208401935060208301925050600181019050620002dc565b5050509392505050565b600081519050620003288162000631565b92915050565b600082601f8301126200034057600080fd5b815162000352848260208601620002a2565b91505092915050565b6000815190506200036c816200064b565b92915050565b600080600080608085870312156200038957600080fd5b6000620003998782880162000317565b9450506020620003ac878288016200035b565b935050604085015167ffffffffffffffff811115620003ca57600080fd5b620003d8878288016200032e565b9250506060620003eb878288016200035b565b91505092959194509250565b6200040281620004ec565b82525050565b62000413816200052a565b82525050565b620004248162000520565b82525050565b600060608201905062000441600083018662000419565b62000450602083018562000408565b6200045f6040830184620003f7565b949350505050565b60006040820190506200047e600083018562000419565b6200048d602083018462000419565b9392505050565b6000620004a0620004b3565b9050620004ae82826200053e565b919050565b6000604051905090565b600067ffffffffffffffff821115620004db57620004da620005f1565b5b602082029050602081019050919050565b6000620004f98262000500565b9050919050565b600073ffffffffffffffffffffffffffffffffffffffff82169050919050565b6000819050919050565b6000620005378262000520565b9050919050565b620005498262000620565b810181811067ffffffffffffffff821117156200056b576200056a620005f1565b5b80604052505050565b6000620005818262000520565b91507fffffffffffffffffffffffffffffffffffffffffffffffffffffffffffffffff821415620005b757620005b6620005c2565b5b600182019050919050565b7f4e487b7100000000000000000000000000000000000000000000000000000000600052601160045260246000fd5b7f4e487b7100000000000000000000000000000000000000000000000000000000600052604160045260246000fd5b6000601f19601f8301169050919050565b6200063c81620004ec565b81146200064857600080fd5b50565b620006568162000520565b81146200066257600080fd5b50565b611a3180620006756000396000f3fe60806040526004361061008a5760003560e01c80637b5d2534116100595780637b5d25341461013557806383920e90146101605780639ace38c21461018b578063cc4da2c8146101cd578063ee22610b146101f65761008b565b80631703a0181461008d57806318a7b7ae146100b85780635d049e4a146100e157806374179ceb1461010c5761008b565b5b005b34801561009957600080fd5b506100a261021f565b6040516100af919061160f565b60405180910390f35b3480156100c457600080fd5b506100df60048036038101906100da919061115e565b610225565b005b3480156100ed57600080fd5b506100f661047d565b604051610103919061160f565b60405180910390f35b34801561011857600080fd5b50610133600480360381019061012e9190611093565b610483565b005b34801561014157600080fd5b5061014a6106e8565b60405161015791906115f4565b60405180910390f35b34801561016c57600080fd5b5061017561070c565b60405161018291906115d2565b60405180910390f35b34801561019757600080fd5b506101b260048036038101906101ad9190611135565b6108c4565b6040516101c49695949392919061156a565b60405180910390f35b3480156101d957600080fd5b506101f460048036038101906101ef919061115e565b6109e5565b005b34801561020257600080fd5b5061021d60048036038101906102189190611135565b610c3e565b005b60025481565b836003805490508110610264576040517f9e1b596f00000000000000000000000000000000000000000000000000000000815260040160405180910390fd5b846003818154811061029f577f4e487b7100000000000000000000000000000000000000000000000000000000600052603260045260246000fd5b906000526020600020906004020160030160009054906101000a900460ff16156102f5576040517f2ea945cf00000000000000000000000000000000000000000000000000000000815260040160405180910390fd5b600080604051602001610308919061150c565b6040516020818303038152906040528051906020012060001c90506000878260405160200161033892919061153e565b6040516020818303038152906040528051906020012060001c905060008054906101000a900473ffffffffffffffffffffffffffffffffffffffff1673ffffffffffffffffffffffffffffffffffffffff16633bc778e360015489858a868b6040518763ffffffff1660e01b81526004016103b89695949392919061162a565b600060405180830381600087803b1580156103d257600080fd5b505af11580156103e6573d6000803e3d6000fd5b50505050600160038981548110610426577f4e487b7100000000000000000000000000000000000000000000000000000000600052603260045260246000fd5b906000526020600020906004020160030160058282829054906101000a900463ffffffff166104559190611768565b92506101000a81548163ffffffff021916908363ffffffff1602179055505050505050505050565b60015481565b600086868660405160200161049a939291906114d3565b6040516020818303038152906040528051906020012060001c90506000600380549050826040516020016104cf92919061153e565b6040516020818303038152906040528051906020012060001c905060008054906101000a900473ffffffffffffffffffffffffffffffffffffffff1673ffffffffffffffffffffffffffffffffffffffff16633bc778e360015487858886896040518763ffffffff1660e01b815260040161054f9695949392919061162a565b600060405180830381600087803b15801561056957600080fd5b505af115801561057d573d6000803e3d6000fd5b5050505060036040518060c001604052808a73ffffffffffffffffffffffffffffffffffffffff168152602001898152602001888152602001600015158152602001600063ffffffff168152602001600063ffffffff16815250908060018154018082558091505060019003906000526020600020906004020160009091909190915060008201518160000160006101000a81548173ffffffffffffffffffffffffffffffffffffffff021916908373ffffffffffffffffffffffffffffffffffffffff16021790555060208201518160010155604082015181600201908051906020019061066d929190610f40565b5060608201518160030160006101000a81548160ff02191690831515021790555060808201518160030160016101000a81548163ffffffff021916908363ffffffff16021790555060a08201518160030160056101000a81548163ffffffff021916908363ffffffff16021790555050505050505050505050565b60008054906101000a900473ffffffffffffffffffffffffffffffffffffffff1681565b60606003805480602002602001604051908101604052809291908181526020016000905b828210156108bb57838290600052602060002090600402016040518060c00160405290816000820160009054906101000a900473ffffffffffffffffffffffffffffffffffffffff1673ffffffffffffffffffffffffffffffffffffffff1673ffffffffffffffffffffffffffffffffffffffff168152602001600182015481526020016002820180546107c390611860565b80601f01602080910402602001604051908101604052809291908181526020018280546107ef90611860565b801561083c5780601f106108115761010080835404028352916020019161083c565b820191906000526020600020905b81548152906001019060200180831161081f57829003601f168201915b505050505081526020016003820160009054906101000a900460ff161515151581526020016003820160019054906101000a900463ffffffff1663ffffffff1663ffffffff1681526020016003820160059054906101000a900463ffffffff1663ffffffff1663ffffffff168152505081526020019060010190610730565b50505050905090565b600381815481106108d457600080fd5b90600052602060002090600402016000915090508060000160009054906101000a900473ffffffffffffffffffffffffffffffffffffffff169080600101549080600201805461092390611860565b80601f016020809104026020016040519081016040528092919081815260200182805461094f90611860565b801561099c5780601f106109715761010080835404028352916020019161099c565b820191906000526020600020905b81548152906001019060200180831161097f57829003601f168201915b5050505050908060030160009054906101000a900460ff16908060030160019054906101000a900463ffffffff16908060030160059054906101000a900463ffffffff16905086565b836003805490508110610a24576040517f9e1b596f00000000000000000000000000000000000000000000000000000000815260040160405180910390fd5b8460038181548110610a5f577f4e487b7100000000000000000000000000000000000000000000000000000000600052603260045260246000fd5b906000526020600020906004020160030160009054906101000a900460ff1615610ab5576040517f2ea945cf00000000000000000000000000000000000000000000000000000000815260040160405180910390fd5b60006001604051602001610ac9919061150c565b6040516020818303038152906040528051906020012060001c905060008782604051602001610af992919061153e565b6040516020818303038152906040528051906020012060001c905060008054906101000a900473ffffffffffffffffffffffffffffffffffffffff1673ffffffffffffffffffffffffffffffffffffffff16633bc778e360015489858a868b6040518763ffffffff1660e01b8152600401610b799695949392919061162a565b600060405180830381600087803b158015610b9357600080fd5b505af1158015610ba7573d6000803e3d6000fd5b50505050600160038981548110610be7577f4e487b7100000000000000000000000000000000000000000000000000000000600052603260045260246000fd5b906000526020600020906004020160030160018282829054906101000a900463ffffffff16610c169190611768565b92506101000a81548163ffffffff021916908363ffffffff1602179055505050505050505050565b806003805490508110610c7d576040517f9e1b596f00000000000000000000000000000000000000000000000000000000815260040160405180910390fd5b8160038181548110610cb8577f4e487b7100000000000000000000000000000000000000000000000000000000600052603260045260246000fd5b906000526020600020906004020160030160009054906101000a900460ff1615610d0e576040517f2ea945cf00000000000000000000000000000000000000000000000000000000815260040160405180910390fd5b60025460038481548110610d4b577f4e487b7100000000000000000000000000000000000000000000000000000000600052603260045260246000fd5b906000526020600020906004020160030160059054906101000a900463ffffffff1663ffffffff1610610daa576040517f80a0776100000000000000000000000000000000000000000000000000000000815260040160405180910390fd5b600060038481548110610de6577f4e487b7100000000000000000000000000000000000000000000000000000000600052603260045260246000fd5b906000526020600020906004020190506002548160030160019054906101000a900463ffffffff1663ffffffff161015610e4c576040517faa26a69300000000000000000000000000000000000000000000000000000000815260040160405180910390fd5b60018160030160006101000a81548160ff02191690831515021790555060008160000160009054906101000a900473ffffffffffffffffffffffffffffffffffffffff1673ffffffffffffffffffffffffffffffffffffffff16826001015483600201604051610ebc9190611527565b60006040518083038185875af1925050503d8060008114610ef9576040519150601f19603f3d011682016040523d82523d6000602084013e610efe565b606091505b5050905080610f39576040517fcb2f2a1c00000000000000000000000000000000000000000000000000000000815260040160405180910390fd5b5050505050565b828054610f4c90611860565b90600052602060002090601f016020900481019282610f6e5760008555610fb5565b82601f10610f8757805160ff1916838001178555610fb5565b82800160010185558215610fb5579182015b82811115610fb4578251825591602001919060010190610f99565b5b509050610fc29190610fc6565b5090565b5b80821115610fdf576000816000905550600101610fc7565b5090565b6000610ff6610ff1846116b1565b61168c565b90508281526020810184848401111561100e57600080fd5b61101984828561181e565b509392505050565b600081359050611030816119cd565b92915050565b60008190508260206008028201111561104e57600080fd5b92915050565b600082601f83011261106557600080fd5b8135611075848260208601610fe3565b91505092915050565b60008135905061108d816119e4565b92915050565b6000806000806000806101a087890312156110ad57600080fd5b60006110bb89828a01611021565b96505060206110cc89828a0161107e565b955050604087013567ffffffffffffffff8111156110e957600080fd5b6110f589828a01611054565b945050606061110689828a0161107e565b935050608061111789828a0161107e565b92505060a061112889828a01611036565b9150509295509295509295565b60006020828403121561114757600080fd5b60006111558482850161107e565b91505092915050565b600080600080610160858703121561117557600080fd5b60006111838782880161107e565b94505060206111948782880161107e565b93505060406111a58782880161107e565b92505060606111b687828801611036565b91505092959194509250565b60006111ce83836113f7565b905092915050565b6111df816117a2565b82525050565b6111ee816117a2565b82525050565b611205611200826117a2565b6118c3565b82525050565b600061121682611707565b611220818561172a565b935083602082028501611232856116e2565b8060005b8581101561126e578484038952815161124f85826111c2565b945061125a8361171d565b925060208a01995050600181019050611236565b50829750879550505050505092915050565b61128d610100838361181e565b5050565b61129a816117b4565b82525050565b6112a9816117b4565b82525050565b6112c06112bb826117b4565b6118d5565b82525050565b60006112d182611712565b6112db818561173b565b93506112eb81856020860161182d565b6112f4816119a2565b840191505092915050565b600061130a82611712565b611314818561174c565b935061132481856020860161182d565b61132d816119a2565b840191505092915050565b600061134382611712565b61134d818561175d565b935061135d81856020860161182d565b80840191505092915050565b6000815461137681611860565b611380818661175d565b9450600182166000811461139b57600181146113ac576113df565b60ff198316865281860193506113df565b6113b5856116f2565b60005b838110156113d7578154818901526001820191506020810190506113b8565b838801955050505b50505092915050565b6113f1816117fa565b82525050565b600060c08301600083015161140f60008601826111d6565b5060208301516114226020860182611480565b506040830151848203604086015261143a82826112c6565b915050606083015161144f6060860182611291565b50608083015161146260808601826114b5565b5060a083015161147560a08601826114b5565b508091505092915050565b611489816117e0565b82525050565b611498816117e0565b82525050565b6114af6114aa826117e0565b6118f9565b82525050565b6114be816117ea565b82525050565b6114cd816117ea565b82525050565b60006114df82866111f4565b6014820191506114ef828561149e565b6020820191506114ff8284611338565b9150819050949350505050565b600061151882846112af565b60018201915081905092915050565b60006115338284611369565b915081905092915050565b600061154a828561149e565b60208201915061155a828461149e565b6020820191508190509392505050565b600060c08201905061157f60008301896111e5565b61158c602083018861148f565b818103604083015261159e81876112ff565b90506115ad60608301866112a0565b6115ba60808301856114c4565b6115c760a08301846114c4565b979650505050505050565b600060208201905081810360008301526115ec818461120b565b905092915050565b600060208201905061160960008301846113e8565b92915050565b6000602082019050611624600083018461148f565b92915050565b60006101a082019050611640600083018961148f565b61164d602083018861148f565b61165a604083018761148f565b611667606083018661148f565b611674608083018561148f565b61168160a0830184611280565b979650505050505050565b60006116966116a7565b90506116a28282611892565b919050565b6000604051905090565b600067ffffffffffffffff8211156116cc576116cb611973565b5b6116d5826119a2565b9050602081019050919050565b6000819050602082019050919050565b60008190508160005260206000209050919050565b600081519050919050565b600081519050919050565b6000602082019050919050565b600082825260208201905092915050565b600082825260208201905092915050565b600082825260208201905092915050565b600081905092915050565b6000611773826117ea565b915061177e836117ea565b92508263ffffffff0382111561179757611796611915565b5b828201905092915050565b60006117ad826117c0565b9050919050565b60008115159050919050565b600073ffffffffffffffffffffffffffffffffffffffff82169050919050565b6000819050919050565b600063ffffffff82169050919050565b60006118058261180c565b9050919050565b6000611817826117c0565b9050919050565b82818337600083830152505050565b60005b8381101561184b578082015181840152602081019050611830565b8381111561185a576000848401525b50505050565b6000600282049050600182168061187857607f821691505b6020821081141561188c5761188b611944565b5b50919050565b61189b826119a2565b810181811067ffffffffffffffff821117156118ba576118b9611973565b5b80604052505050565b60006118ce826118e7565b9050919050565b60006118e082611903565b9050919050565b60006118f2826119c0565b9050919050565b6000819050919050565b600061190e826119b3565b9050919050565b7f4e487b7100000000000000000000000000000000000000000000000000000000600052601160045260246000fd5b7f4e487b7100000000000000000000000000000000000000000000000000000000600052602260045260246000fd5b7f4e487b7100000000000000000000000000000000000000000000000000000000600052604160045260246000fd5b6000601f19601f8301169050919050565b60008160f81b9050919050565b60008160601b9050919050565b6119d6816117a2565b81146119e157600080fd5b50565b6119ed816117e0565b81146119f857600080fd5b5056fea264697066735822122065f574ab0c921311891f101b0df60e7cd6a5223492d3da4118513db081d335fa64736f6c63430008040033",
    "linkReferences": {},
    "deployedLinkReferences": {}
}